{
  "contractName": "HackathonApplications",
  "abi": [
    {
      "inputs": [],
      "payable": false,
      "stateMutability": "nonpayable",
      "type": "constructor",
      "signature": "constructor"
    },
    {
      "constant": true,
      "inputs": [],
      "name": "getApplications",
      "outputs": [
        {
          "name": "",
          "type": "address[]"
        }
      ],
      "payable": false,
      "stateMutability": "view",
      "type": "function",
      "signature": "0x43900e78"
    },
    {
      "constant": false,
      "inputs": [
        {
          "name": "newApplication",
          "type": "address"
        }
      ],
      "name": "register",
      "outputs": [],
      "payable": false,
      "stateMutability": "nonpayable",
      "type": "function",
      "signature": "0x4420e486"
    },
    {
      "constant": false,
      "inputs": [],
      "name": "finalize",
      "outputs": [],
      "payable": false,
      "stateMutability": "nonpayable",
      "type": "function",
      "signature": "0x4bb278f3"
    },
    {
      "constant": false,
      "inputs": [],
      "name": "destroy",
      "outputs": [],
      "payable": false,
      "stateMutability": "nonpayable",
      "type": "function",
      "signature": "0x83197ef0"
    }
  ],
  "bytecode": "0x608060405260018060146101000a81548160ff02191690831515021790555034801561002a57600080fd5b5033600160006101000a81548173ffffffffffffffffffffffffffffffffffffffff021916908373ffffffffffffffffffffffffffffffffffffffff16021790555061052f8061007b6000396000f3fe60806040526004361061005c576000357c01000000000000000000000000000000000000000000000000000000009004806343900e78146100615780634420e486146100cd5780634bb278f31461011e57806383197ef014610135575b600080fd5b34801561006d57600080fd5b5061007661014c565b6040518080602001828103825283818151815260200191508051906020019060200280838360005b838110156100b957808201518184015260208101905061009e565b505050509050019250505060405180910390f35b3480156100d957600080fd5b5061011c600480360360208110156100f057600080fd5b81019080803573ffffffffffffffffffffffffffffffffffffffff1690602001909291905050506101da565b005b34801561012a57600080fd5b50610133610308565b005b34801561014157600080fd5b5061014a6103ea565b005b606060008054806020026020016040519081016040528092919081815260200182805480156101d057602002820191906000526020600020905b8160009054906101000a900473ffffffffffffffffffffffffffffffffffffffff1673ffffffffffffffffffffffffffffffffffffffff1681526020019060010190808311610186575b5050505050905090565b60011515600160149054906101000a900460ff16151514151561028b576040517f08c379a00000000000000000000000000000000000000000000000000000000081526004018080602001828103825260298152602001807f4170706c69636174696f6e7320617265206e6f206c6f6e676572206f70656e2181526020017f20536f727279203a28000000000000000000000000000000000000000000000081525060400191505060405180910390fd5b610294816104ea565b151561029f57600080fd5b60008190806001815401808255809150509060018203906000526020600020016000909192909190916101000a81548173ffffffffffffffffffffffffffffffffffffffff021916908373ffffffffffffffffffffffffffffffffffffffff1602179055505050565b600160009054906101000a900473ffffffffffffffffffffffffffffffffffffffff1673ffffffffffffffffffffffffffffffffffffffff163373ffffffffffffffffffffffffffffffffffffffff161415156103cd576040517f08c379a00000000000000000000000000000000000000000000000000000000081526004018080602001828103825260178152602001807f4f6e6c79206d616e616765722063616e2061636365737300000000000000000081525060200191505060405180910390fd5b6000600160146101000a81548160ff021916908315150217905550565b600160009054906101000a900473ffffffffffffffffffffffffffffffffffffffff1673ffffffffffffffffffffffffffffffffffffffff163373ffffffffffffffffffffffffffffffffffffffff161415156104af576040517f08c379a00000000000000000000000000000000000000000000000000000000081526004018080602001828103825260178152602001807f4f6e6c79206d616e616765722063616e2061636365737300000000000000000081525060200191505060405180910390fd5b600160009054906101000a900473ffffffffffffffffffffffffffffffffffffffff1673ffffffffffffffffffffffffffffffffffffffff16ff5b600080823b905060008163ffffffff161191505091905056fea165627a7a723058207e4f9704457c33c7400227fae7ddaa5e57971130fc97a09590a96af96d7306fd0029",
  "source": "pragma solidity >=0.4.21 <0.6.0;\n\ncontract HackathonApplications {\n    address[] applications;\n    address payable manager;\n    bool acceptingApplication = true;\n\n    constructor() public {\n        manager = msg.sender;\n    }\n\n    modifier restricted {\n        require(msg.sender == manager, \"Only manager can access\");\n        _;\n    }\n\n    modifier applicationsOpen {\n        require(acceptingApplication == true, \"Applications are no longer open! Sorry :(\");\n        _;\n    }\n\n    function getApplications() public view returns (address[] memory) {\n        return applications;\n    }\n\n    function register(address newApplication) public applicationsOpen {\n        require(isContract(newApplication));\n        applications.push(newApplication);\n    }\n    \n    function isContract(address _addr) private view returns (bool isContract){\n        uint32 size;\n        assembly {\n            size := extcodesize(_addr)\n        }\n        return (size > 0);\n    }\n        \n    function finalize() public restricted {\n        acceptingApplication = false;\n    }\n\n    function destroy() public restricted {\n        selfdestruct(manager); \n    }\n\n}",
  "sourcePath": "/home/user/Programming/Blockchain/ATB/RegistrationToATB/truffle/contracts/HackathonApplications.sol",
  "compiler": {
    "name": "solc",
    "version": "0.5.1+commit.c8a2cb62.Linux.g++"
  },
  "schemaVersion": "3.0.2",
  "updatedAt": "2019-03-19T18:51:06.805Z",
  "devdoc": {
    "methods": {}
  },
  "userdoc": {
    "methods": {}
  }
}