{
  "contractName": "Application",
  "abi": [
    {
      "inputs": [
        {
          "name": "_teamName",
          "type": "string"
        },
        {
          "name": "_teamSize",
          "type": "uint32"
        }
      ],
      "payable": false,
      "stateMutability": "nonpayable",
      "type": "constructor"
    },
    {
      "constant": false,
      "inputs": [
        {
          "name": "_teamName",
          "type": "string"
        },
        {
          "name": "_teamSize",
          "type": "uint32"
        }
      ],
      "name": "updateApplication",
      "outputs": [],
      "payable": false,
      "stateMutability": "nonpayable",
      "type": "function"
    },
    {
      "constant": true,
      "inputs": [],
      "name": "getApplication",
      "outputs": [
        {
          "name": "",
          "type": "address"
        }
      ],
      "payable": false,
      "stateMutability": "view",
      "type": "function"
    },
    {
      "constant": true,
      "inputs": [],
      "name": "getApplicationData",
      "outputs": [
        {
          "name": "",
          "type": "string"
        },
        {
          "name": "",
          "type": "uint32"
        },
        {
          "name": "",
          "type": "address"
        }
      ],
      "payable": false,
      "stateMutability": "view",
      "type": "function"
    }
  ],
  "bytecode": "0x608060405234801561001057600080fd5b506040516106e33803806106e38339810180604052604081101561003357600080fd5b81019080805164010000000081111561004b57600080fd5b8281019050602081018481111561006157600080fd5b815185600182028301116401000000008211171561007e57600080fd5b505092919060200180519060200190929190505050336000806101000a81548173ffffffffffffffffffffffffffffffffffffffff021916908373ffffffffffffffffffffffffffffffffffffffff16021790555081600190805190602001906100e9929190610112565b5080600260006101000a81548163ffffffff021916908363ffffffff16021790555050506101b7565b828054600181600116156101000203166002900490600052602060002090601f016020900481019282601f1061015357805160ff1916838001178555610181565b82800160010185558215610181579182015b82811115610180578251825591602001919060010190610165565b5b50905061018e9190610192565b5090565b6101b491905b808211156101b0576000816000905550600101610198565b5090565b90565b61051d806101c66000396000f3fe608060405260043610610057576000357c0100000000000000000000000000000000000000000000000000000000900463ffffffff168063446e57a11461005c5780634fe89efe14610132578063f6cd3dce14610189575b600080fd5b34801561006857600080fd5b50610071610261565b60405180806020018463ffffffff1663ffffffff1681526020018373ffffffffffffffffffffffffffffffffffffffff1673ffffffffffffffffffffffffffffffffffffffff168152602001828103825285818151815260200191508051906020019080838360005b838110156100f55780820151818401526020810190506100da565b50505050905090810190601f1680156101225780820380516001836020036101000a031916815260200191505b5094505050505060405180910390f35b34801561013e57600080fd5b50610147610344565b604051808273ffffffffffffffffffffffffffffffffffffffff1673ffffffffffffffffffffffffffffffffffffffff16815260200191505060405180910390f35b34801561019557600080fd5b5061025f600480360360408110156101ac57600080fd5b81019080803590602001906401000000008111156101c957600080fd5b8201836020820111156101db57600080fd5b803590602001918460018302840111640100000000831117156101fd57600080fd5b91908080601f016020809104026020016040519081016040528093929190818152602001838380828437600081840152601f19601f820116905080830192505050505050509192919290803563ffffffff16906020019092919050505061034c565b005b60606000806001600260009054906101000a900463ffffffff166000809054906101000a900473ffffffffffffffffffffffffffffffffffffffff16828054600181600116156101000203166002900480601f0160208091040260200160405190810160405280929190818152602001828054600181600116156101000203166002900480156103325780601f1061030757610100808354040283529160200191610332565b820191906000526020600020905b81548152906001019060200180831161031557829003601f168201915b50505050509250925092509250909192565b600030905090565b3373ffffffffffffffffffffffffffffffffffffffff166000809054906101000a900473ffffffffffffffffffffffffffffffffffffffff1673ffffffffffffffffffffffffffffffffffffffff16141515610410576040517f08c379a00000000000000000000000000000000000000000000000000000000081526004018080602001828103825260188152602001807f4f6e6c79206d616e616765722063616e2075706461746521000000000000000081525060200191505060405180910390fd5b816001908051906020019061042692919061044c565b5080600260006101000a81548163ffffffff021916908363ffffffff1602179055505050565b828054600181600116156101000203166002900490600052602060002090601f016020900481019282601f1061048d57805160ff19168380011785556104bb565b828001600101855582156104bb579182015b828111156104ba57825182559160200191906001019061049f565b5b5090506104c891906104cc565b5090565b6104ee91905b808211156104ea5760008160009055506001016104d2565b5090565b9056fea165627a7a72305820e36af42035d4120d28e6587bee00f0d98ee5c16e87ae2638a13ae4acc7576f0d0029",
  "source": "contract Application {\n\n    address manager;\n    string teamName;\n    uint32 teamSize;\n\n    modifier restricted {\n        require(manager == msg.sender, \"Only manager can update!\");\n        _;\n    }\n\n    constructor(string memory _teamName, uint32 _teamSize) public {\n        manager = msg.sender;\n        teamName = _teamName;\n        teamSize = _teamSize;\n    }\n\n    function updateApplication(string memory _teamName, uint32 _teamSize) public restricted  {\n        teamName = _teamName;\n        teamSize = _teamSize;\n    }\n    \n    function getApplication() public view returns (Application) {\n        return this;\n    }\n    \n    function getApplicationData() public view returns (string memory, uint32, address) {\n        return (teamName, teamSize, manager);\n    }\n}",
  "sourcePath": "/home/user/Programming/Blockchain/ATB/RegistrationToATB/blockchain/Application/contracts/Application.sol",
  "compiler": {
    "name": "solc",
    "version": "0.5.0+commit.1d4f565a.Emscripten.clang"
  },
  "schemaVersion": "3.0.2",
  "updatedAt": "2019-03-22T21:22:07.182Z",
  "devdoc": {
    "methods": {}
  },
  "userdoc": {
    "methods": {}
  }
}